:020000040000FA
:06000000020B4B0202405E
:03002B0002092B9C
:030033000206B30F
:030043000207F9B8
:0300530002017532
:03006B0002068DFD
:100083000201D4010020FD000200006D0F000000FA
:10009300000000D90F000000000000550F00000011
:1000A300000000000000000000000000000000004D
:1000B300000000000006FFFF08F0180000000159CF
:1000C300145F1400000000000065146B14000000AE
:1000D3000000007114000000000000000000000098
:1000E300001020202020202020202020202020203D
:1000F30020200108040100010005A280019A81016A
:10010300010104003019000000E8030000FFFFFCB8
:1001130019E803000064006400B801A0BB0D00A04F
:10012300BB0D000202000000040502070401051EC6
:1001330002051E020A0A0102080803B80B02803EE8
:100143000102FEFFE8030A050001FFFF010A140193
:10015300E002000000010105030101FF0F10FEFF93
:10016300EB2B00000000212B00000000FF0000002B
:10017300FF00C0E074F1120457A2AFE433F509D2D3
:10018300AF85A708AFA1EF5508FE74105E60061295
:100193000CDF75A1EF74085E6008120CE575A1F71A
:1001A3008024EFA2E092F0E508A2E082F0501790DD
:1001B3006198E0F8900583E0C398A2D265D03350EC
:1001C30002E8F075A1FEE509A2E092AF7F02020406
:1001D300B6C0E074F2120457A2AFE433FED2AF907C
:1001E30061A4E0F8759B00E5915854086008759187
:1001F300F7120D2D8023E59158541060087591EF87
:10020300120D338014E591A2E092F0E8A2E082F0AF
:100213005007E0C2E0F0120E899061A3E0F8E5E92F
:10022300585404600E120E5F75E9FB906193E0A2CF
:10023300E640F2EEA2E092AF7F010204B6C0E074A2
:10024300F2120457A2AFE433FED2AF9061A5E0F8F7
:10025300E5BF585404600675BFFB120EA180D4C3DA
:10026300E498F8E499F91202A38026C3E49AFAE425
:100273009BFBE920E7E91202A3E498F8E499F92249
:10028300C3E498F8E499F91202A3E498F8E499F91D
:10029300C3E49AFAE49BFB22EB20E7CFE920E7E0F3
:1002A300B90010BB0008E88AF084F8AAF022E4FB46
:1002B300C8FA22EB70227B10C833C8C933C9335044
:1002C30007C39AC3DBF280069A50012ADBEAC833DC
:1002D300F4C8C933F4C9FA2275F008E4C833C8C9AD
:1002E30033C933C99AC99B5004C92AC93BD5F0EC19
:1002F300FBC833F4C8E4C9FA22080808EAC0E0EBF3
:10030300C0E086F0E7A4FA180986F0E7A42AFA18F1
:100313000986F0E7A42AFA180986F0E7A42AFA194D
:1003230086F0E7A4FBE5F02AFA190886F0E7A42B88
:10033300FBE5F03AFA190886F0E7A42BFBE5F03A5F
:10034300FA18180986F0E7A4C5F02BFBE43AFA196A
:1003530008E7C5F0C6A426F6E5F03BFBE43AFA1835
:1003630086F0E7A4F6E5F00826F6E43B08F6E43A5F
:1003730008F6D0E0FBD0E0FA22E4CFC0E0E4CEC040
:10038300E0E4CDC0E0E4CCC0E075F020E626F6085A
:10039300E633F608E633F608E633F6181818EC33B6
:1003A300FCED33FDEE33FEEF33FFC3EC9709ED971E
:1003B30009EE9709EF97191919400FFFEC97FC09FC
:1003C300ED97FD09EE97FE191906D5F0BFECF70975
:1003D300EDF709EEF709EFF7191919D0E0FCD0E0B2
:1003E300FDD0E0FED0E0FF222518C582C0E0E5196C
:1003F30034FFC583C0E0E518C3958224F810AF0825
:100403008583198582188008858319858218D2AF60
:10041300CEF0A3E520F0A37808E608F0A3DEFAEF18
:10042300F0A3E58124FAF8E608F0A3E608F0A3E6D2
:1004330008F0A30808E608F0A3E608F0A315811561
:1004430081D0E0FED0E0F8158115811581E8C0E088
:10045300EEC0E022C0D02518C582C0E0E51934FF04
:10046300C583C0E0E518C3958224F310AF088583E4
:10047300198582188008858319858218D2AFC8F040
:10048300A3E9F0A3EAF0A3EBF0A37908E709F0A34B
:10049300D8FAECF0A3EDF0A3EEF0A3EFF0A3D0E0D5
:1004A300F0A3D0E0F0A3D0E0F0A3E520F0A3E5F0C3
:1004B300F0A322851983851882E0C0E0A3E0F9A3A5
:1004C300E0FAA3E0FBA37808E0F608A3DFFAE0FC78
:1004D300A3E0FDA3E0FEA3E0FFA3E0C0E0A3E0C030
:1004E300E0A3E0F5D0A3E0F520A3E0A3F5F010AF7F
:1004F300088583198582188008858319858218D217
:10050300AFD082D083D0E0F8D0E032120BDDB90057
:100513000302054DE490030178C8791A8002F0A321
:10052300D8FCD9FA7AC87B1C90008678F0790180D0
:1005330015E493A3AD82AE838A828B83F0A3AA8250
:10054300AB838D828E83D8E9D9E77582EC7583E816
:1005530074051208BC75823175832774001208BCB8
:100563001E75F0108E1A8F1B85821F85831E8518BA
:1005730082851983E0CEA3E0CF851F82851E83EB9E
:10058300C9EAC8EDCBECCAC3E833C8E933C9EA33D7
:10059300CAEB33CBC3EA9EF51DEB9FF51CB35004A6
:1005A300AB1CAA1DEC33CCED33CDD5F0DAAE1AAFCC
:1005B3001B22D083D082ECC0E0EDC0E0E493A3FC27
:1005C300E493A3FDED4C600D1206D1EC24FFFCED8A
:1005D30034FFFD80EFE493A3FCE493A3FDED4C60B3
:1005E3000D1207A4EC24FFFCED34FFFD80EFD0E0F7
:1005F300FDD0E0FCE493A3C0E0E493C0E022D08309
:10060300D082E9C0E0E493A3C386F0C5F095F0F986
:1006130008E493A386F0C5F095F0700BE493A3C3AD
:10062300994005E9048002A3E475F002A42582F54C
:1006330082E5F03583F583D0E0F9E493A3C0E0E4E9
:1006430093C0E022851983851882E0A3FEE0A3F519
:10065300207808E0A3F608DFFAE0A3FFE0A3C0E0F8
:10066300E0A3C0E0E0A3C0E0E0A3C0E0E0A3C0E0FB
:1006730010AF0885821885831980088582188583C1
:1006830019D2AFD083D0820208C2C0E074F2120440
:1006930057A2AFE433FED2AFE589A2E1500312269D
:1006A30065758900C2C5EEA2E092AF7F010204B670
:1006B300C0E074F2120457A2AFE433FED2AFE58B6D
:1006C300A2E05003122665758B00C2E880D8C0E013
:1006D300C3E49396087401939618400FE4936670ED
:1006E3000808740193661870007019A3A3C3E493F8
:1006F30096087401939618A3A3400DD0E0D0E0D0E0
:10070300E00205F1A3A3A3A3A3A3D0E022D083D047
:1007130082C5F0E493A3C5F0C395F0F5F0E493A389
:10072300C395F04005E5F0048001E475F002A425CB
:1007330082F582E5F03583F583E493A3C0E0E49387
:10074300C0E0227404800474028000CCC0E0EDC0D9
:10075300E0E518C39CCCAD1950011D10AF068C18F1
:100763008D1980068C188D19D2AF12083ED0E0FD8A
:10077300D0E0FC2274028000CCC0E0EDC0E0E518BC
:10078300C39CCCAD1950011D10AF068C188D198078
:10079300068C188D19D2AF12081CD0E0FDD0E0FCF6
:1007A30022C0E0C0F088F0E49366700808740193F7
:1007B30066187000A8F0A3A3700BD0F0D0E0D0E0CF
:1007C300D0E00205F1A3A3D0F0D0E022D083D08201
:1007D300CCC0E0E493A3600612087E1470FAE4939D
:1007E300A360061209BE1470FAD0E0FCE493A3C020
:1007F300E0E493C0E022C0E074F2120457A2AFE435
:1008030033FED2AFC2C0E5D1A2E45003120C49EECD
:10081300A2E092AF7F010204B6CAC0E0E493A3C58D
:1008230082CCC582C583CDC583F0A3C582CCC582E6
:10083300C583CDC583DAE5D0E0CA22CAC0E0E0A310
:10084300C582CCC582C583CDC583F0A3C582CCC583
:1008530082C583CDC583DAE6D0E0CA22C008C3E0EF
:1008630096F50808A3E096420808A3E09642080814
:10087300A3E09645087001D3D00822C0E0E493A317
:10088300D39C5010E493A3C39C400AD0E0D0E0D0A3
:10089300E00207ECA3A3A3D0E02270090808082212
:1008A3006016181818C6C333C608C633C608C6333D
:1008B300C608C633C6D5E0EA22C09FF59FE473D0CD
:1008C3009F22D083D082C09FE493C0E0740193C081
:1008D300E0740293F59F227404800A740380067403
:1008E3000280027401C0E0F4041208F5D0E0120B98
:1008F30088222518F58210AF08F518400C151980C9
:1009030008F51840021519D2AF8519832200C0D00B
:10091300251810AF08F518500C05198008F5185064
:10092300020519D2AFD0D022C0E0C0D0E8C0E0A801
:10093300A8D2AFC2C7E8A2E792AFD0E0F8D0D0D038
:10094300E032BB0102E722C082C08389828A83BB73
:100953000003E08002E493D083D08222601608086B
:1009630008C6C313C618C613C618C613C618C613BB
:10097300C6D5E0EA22C3E0C696F608A3E0C696F61B
:1009830008A3E0C696F608A3E0C696F6222518F853
:10099300E43519F9222518FAE43519FB222518FC48
:1009A300E43519FD22251810AF08F518400C151968
:1009B3008008F51840021519D2AF22C0E0E493A3D2
:1009C3006C7009D0E0D0E0D0E00207ECA3A3D0E044
:1009D30022E066701008A3E066700A08A3E0667060
:1009E3000408A3E06622E76670100809E766700A48
:1009F3000809E76670040809E76622C3E09608A3BE
:100A0300E09608A3E09608A3E096A2D265D033222D
:100A1300C3E096F008A3E096F008A3E096F008A3DD
:100A2300E096F022C3E697F60809E697F60809E68A
:100A330097F60809E697F622C3E4939608740193A0
:100A4300960874029396087403939622E627F60891
:100A530009E637F60809E637F60809E637F622E02D
:100A630026F608A3E036F608A3E036F608A3E03638
:100A7300F622700422600D18C6C333C608C633C6F7
:100A8300D5E0F41822E493F608740193F60874028F
:100A930093F608740393F622E657F60809E657F629
:100AA3000809E657F60809E657F622E056F608A3C2
:100AB300E056F608A3E056F608A3E056F622E05601
:100AC300F008A3E056F008A3E056F008A3E056F0C0
:100AD30022E026F008A3E036F008A3E036F008A3EE
:100AE300E036F022E647F60809E647F60809E64746
:100AF300F60809E647F622E4C396F608E496F608F4
:100B0300E496F608E496F622600D08C6A2E713C63B
:100B130018C613C6D5E0F322C6F4C608C6F4C60841
:100B2300C6F4C608C6F4C622C3E7960809E79608C2
:100B330009E7960809E79622C3E09608A3E096081A
:100B4300A3E09608A3E0962275D00075813F75183F
:100B5300017519030002050EE6F008A3E6F008A3E9
:100B6300E6F008A3E6F022600C08C6C313C618C655
:100B730013C6D5E0F422E0F608A3E0F608A3E0F6F6
:100B830008A3E0F622CAC0E0E6F0A308DAFAD0E050
:100B9300FA22E8F0A3E9F0A3EAF0A3EBF022E0F8ED
:100BA300A3E0F9A3E0FAA3E0FB22ECF0A3EDF0A3AA
:100BB300EEF0A3EFF022E0FCA3E0FDA3E0FEA3E050
:100BC300FF22EAF0A3EBF0A3ECF0A3EDF022E0FAAE
:100BD300A3E0FBA3E0FCA3E0FD22E5C754F8440136
:100BE300F5C77901222518F582E43519F58322C268
:100BF300AF75D69F020000221208C5C9F40512087A
:100C0300C5D3DA051208C5E1DA051208C55ADB05B2
:100C13001208C52EDC051208C500DE051208C5C67C
:100C2300FE051208C57DFA041208C5EAFA04120883
:100C3300C5A2FB041208C518FC041208C52BFD0449
:100C43001208C5B6FE041208C51FFF041208C56EBC
:100C5300FF041208C577FF041208C586FF041208B3
:100C6300C59CFF041208C5AFFF041208C5B8FF04F2
:100C73001208C591FF011208C594AF051208C5C03B
:100C8300AF051208C531B2051208C571B2051208C5
:100C9300C5B1B2051208C5C5B2051208C5DEB20555
:100CA3001208C5CFB3051208C574B4051208C58868
:100CB300B4051208C5A1FE021208C5C5FE0212083A
:100CC300C5DEFE021208C510FF021208C540FF026E
:100CD3001208C56DFF021208C5CFFF021208C5DE58
:100CE300FF021208C5E8FF021208C5F5FF02120849
:100CF300C5FDE1051208C51DE2051208C55CE20544
:100D03001208C577E2051208C596E2051208C5FC6C
:100D1300E2051208C505E3051208C562E3051208DA
:100D2300C586E3051208C547E4051208C554E40562
:100D33001208C565E4051208C516FD051208C52E7F
:100D4300FD051208C55AFD051208C59EBE05120809
:100D5300C5F2BF051208C500C0051208C513C005BA
:100D63001208C528C0051208C53DC0051208C550A4
:100D7300C0051208C5C4C0051208C529C10512085B
:100D8300C5CBC1051208C58FC2051208C59FC20590
:100D93001208C5AEC2051208C54AFB051208C56E86
:100DA300FB051208C596FB051208C5BEFB05120814
:100DB300C5C9E6051208C5F0E6051208C50EE70524
:100DC3001208C581E7051208C58AFC011208C5A3EC
:100DD300FC011208C5AFFC011208C5C3FC011208CF
:100DE300C5E1FC011208C5EBFC011208C5F5FC01C5
:100DF3001208C508FD011208C592FD011208C507B6
:100E0300FE011208C53BFE011208C589FE01120846
:100E1300C5D6FE011208C5F1FE011208C5FBFE018D
:100E23001208C521FF011208C586FF011208C5E794
:100E3300F9051208C509FA051208C51EFF051208AF
:100E4300C5808A051208C5AA8A051208C5C78A057E
:100E53001208C5DA8A051208C5F08A051208C54EBC
:100E63008B051208C5868B051208C57E8F051208EF
:100E7300C5C390051208C5F690051208C55991051A
:100E83001208C5DC92051208C50493051208C5199A
:100E930093051208C52993051208C56D9305120819
:100EA300C5C893051208C5D893051208C5FEF405F5
:100EB3001208C518F5051208C540F5051208C559ED
:100EC300F5051208C57DF5051208C59BF505120841
:100ED300C5B2F5051208C5E0F5051208C5FBF50511
:100EE3001208C53EFE051208C565DE051208C57564
:100EF300DE051208C57CDF051208C5B0DF05120840
:100F0300C5D2DF051208C5F5DF051208C513E005D4
:100F13001208C54DE0051208C5B2E0051208C5F474
:100F2300E0051208C533E1051208C564E10512089E
:100F3300C59BE1051208C594F2051208C5B2F20576
:100F43001208C517F3051208C5B6F3051208C53014
:100F5300F8051208C5DB7E001208C5217F001208C0
:100F6300C5A3EC051208C5E2ED051208C5EDEF04B3
:100F73001208C5BFF3041208C5AEF5041208C5DC98
:100F8300F6041208C5B9F7041208C53BF9041208A0
:100F9300C50BFA041208C55FFA041208C5D8EA059E
:100FA3001208C5F9EA051208C52BEC051208C55548
:100FB300EC051208C5BDEF051208C530F00512088F
:100FC300C53BF0051208C5E6F0051208C50FF1058B
:100FD3001208C51AEF011208C51DEF011208C5DD7D
:100FE300F3011208C513F5011208C566F6011208CC
:100FF300C52AF7011208C50DF8011208C505F90144
:101003001208C5B5F9011208C5E5F9011208C59C16
:10101300FB011208C531F1051208C551F10512088B
:10102300C564F2051208C567F2051208C597FA05EB
:101033001208C5CDFA051208C5E7FA051208C52935
:10104300FB051208C539FB051208C56A9C05120881
:10105300C5A49C051208C50D9D051208C52A9D054A
:101063001208C5439D051208C5E59D051208C5EE86
:101073009D051208C5339E051208C55C9E0512081E
:10108300C5699E051208C5DA9E051208C5659F0548
:101093001208C5B39F051208C5F19F051208C5566E
:1010A300A0051208C579A0051208C5F0A00512080D
:1010B300C547A1051208C582A1051208C5B7A10538
:1010C3001208C5C9A1051208C5DBA1051208C5FA96
:1010D300A1051208C503A2051208C5BEA205120880
:1010E300C50AA3051208C548A3051208C593B90587
:1010F3001208C5D3BA051208C5F6BA051208C50702
:10110300BB051208C506BD051208C526BD05120894
:10111300C593E4051208C5C9E4051208C511E50520
:101123001208C56AE6051208C537DC041208C55B58
:10113300DD041208C595DD041208C53FDF0412085B
:10114300C569DF041208C5DEE1041208C51EE20406
:101153001208C5B4E3041208C551E4041208C5A378
:10116300E4041208C546E5041208C57EE504120826
:10117300C5C0E5041208C52FE7041208C57DE804BD
:101183001208C5AEEA041208C5DCEA041208C50356
:10119300EB041208C50CEB041208C55CEB0412083F
:1011A300C5EEEB041208C51DEF041208C5A0EF0439
:1011B3001208C5FEFE051208C514FF051208C59BDB
:1011C300FD051208C575CB051208C58BCB051208A2
:1011D300C52FCC051208C56ECC051208C58BCC05EE
:1011E3001208C5BCCC051208C509CD051208C53CBB
:1011F300CD051208C577CD051208C56CCF051208B9
:10120300C530F7051208C58FF7051208C5CDF705D8
:101213001208C50EF8051208C50080041208C50C93
:1012230080041208C56E80041208C5788004120871
:10123300C50B81041208C54781041208C503820443
:101243001208C51682041208C56682041208C5F581
:1012530082041208C52B83041208C5AD8304120847
:10126300C55885041208C52C87041208C57F880455
:101273001208C5E889041208C5858A041208C52D19
:101283008F041208C51B90041208C5B990041208F4
:10129300C5DE90041208C57A91041208C58F910423
:1012A3001208C5B391041208C51992041208C53671
:1012B30092041208C56092041208C5DD9304120853
:1012C300C5FE93041208C58494041208C52A950424
:1012D3001208C57195041208C5E495041208C57077
:1012E30096041208C5D496041208C534970412084C
:1012F300C5CA97041208C54598041208C57898040E
:101303001208C5DA98041208C53C9A041208C5AC41
:101313009A041208C55A9B041208C5B09C0412080B
:10132300C5469D041208C5B29D041208C5F59F0465
:101333001208C581A1041208C5ACA1041208C59204
:10134300A3041208C537A5041208C540A604120851
:10135300C531D7051208C5A1D7051208C5AFD705F2
:101363001208C5BDD8051208C574AA051208C5A080
:10137300AA051208C507AB051208C57DAC051208FE
:10138300C5A2AC051208C5A5AE051208C5E9AE0590
:101393001208C5FBAE051208C505AF051208C55FE7
:1013A300AF051208C563D6031208C5F4D6031208A5
:1013B300C56FD7031208C56AD8031208C5E7D80357
:1013C3001208C525DA031208C5C0DA031208C59747
:1013D300DC031208C586DD031208C5A3DD0312086A
:1013E300C5D4DE031208C58EE0031208C530E1033D
:1013F3001208C563E4031208C560E6031208C5EFCB
:10140300E6031208C549E7031208C597E703120864
:10141300C512E8031208C588E8031208C5C0E8032B
:101423001208C53EEF031208C58FF1031208C56603
:10143300F2031208C582FE051208C50894051208B6
:10144300C59E94051208C5B896051208C5D9970517
:101453001208C5FC97051208C5AE98051208C5E722
:1014630098051208C50499051208C52A990512089A
:10147300C5CF99051208C5339B051208C56D9B0599
:101483001208C5BDD6021208C518D7021208C5A294
:10149300D7021208C513D9021208C5EBD9021208E4
:1014A300C5A8DA021208C5BFDA021208C511DB02A9
:1014B3001208C575DB021208C5B6DB021208C5C9DE
:1014C300DB021208C51FDC021208C578DC02120811
:1014D300C590DC021208C53BDF021208C5D0DF024B
:1014E3001208C5FADF021208C543E0021208C52F2D
:1014F300E2021208C599E2021208C56DE30212085E
:10150300C5B0E3021208C5CAE3021208C511E4021A
:101513001208C531E4021208C5DBE4021208C5B2A1
:10152300E5021208C5BDE5021208C52DE602120840
:10153300C587E6021208C5CBE6021208C502E80217
:101543001208C57AEA021208C5B1EA021208C52DCB
:10155300EB021208C552EB021208C5CCEB021208CB
:10156300C597EC021208C5D4EC021208C536ED0289
:101573001208C5F7ED021208C5FAED021208C504F8
:10158300EE021208C50EEE021208C521EE02120881
:10159300C593EE021208C5BCEE021208C5CFEE02D7
:1015A3001208C5FBEE021208C522EF021208C54657
:1015B300EF021208C581EF021208C5F3EF02120809
:1015C300C51BF0021208C55CF0021208C576F002D2
:1015D3001208C59BF0021208C5C9F0021208C5E93A
:1015E300F0021208C526F1021208C55DF1021208C5
:1015F300C55DF2021208C590F3021208C5A6F302F4
:101603001208C5BDF3021208C5CFF3021208C5F0D4
:10161300FD051208C508FE051208C59CB40512088D
:10162300C5DAB4051208C566B5051208C571B60555
:101633001208C58DB8051208C50AB9051208C57484
:10164300A3051208C5C3A3051208C563A50512089F
:10165300C51EA7051208C560A7051208C549A80538
:101663001208C553A9051208C575A9051208C5BFF7
:10167300A9051208C540AA051208C5FCC40412082E
:10168300C51FC5041208C512C6041208C55BC604EB
:101693001208C5B3C6041208C50FC7041208C55BF8
:1016A300C7041208C5D1C7041208C55FC8041208CD
:1016B300C5D7C8041208C51AC9041208C5F9CC0451
:1016C3001208C540CF041208C57ACF041208C566B4
:1016D300D0041208C569D0041208C53DD10412080C
:1016E300C575D2041208C544D4041208C544D604EF
:1016F3001208C52FD7041208C5CDD7041208C51781
:10170300D9041208C59ED9041208C58FDA04120839
:10171300C5E8DA041208C585DB041208C548690068
:101723001208C5E869001208C5526A001208C56BA1
:101733006A001208C5ED6A001208C5316B00120871
:10174300C5496C001208C5856C001208C5026D00FE
:101753001208C54D6D001208C5AC6D001208C558BE
:101763006E001208C50171001208C52F720012081D
:10177300C5B372001208C59074001208C535750010
:101783001208C5D875001208C53776001208C5AC13
:1017930076001208C50578001208C5CF7800120834
:1017A300C55D7A001208C56D7B001208C5137C0065
:1017B3001208C57D7C001208C59C7D001208C57BFC
:1017C300AA041208C5F3AA041208C53BAB04120805
:1017D300C57FAB041208C5C8AB041208C512AC041C
:1017E3001208C547AC041208C5C5AC041208C51FCE
:1017F300AD041208C578AE041208C5F7AE0412088A
:10180300C50EB0041208C530B0041208C53CB104BB
:101813001208C54DB1041208C565B1041208C58587
:10182300B2041208C5A2B2041208C575B3041208A3
:10183300C599B3041208C5B0B3041208C5D1B304E3
:101843001208C5F3B3041208C5E5B4041208C53D74
:10185300B5041208C5B3B6041208C511B7041208BB
:10186300C530B7041208C562B8041208C5DFB8044E
:101873001208C54CB9041208C58CB9041208C5EE88
:10188300B9041208C59EBA041208C570BC04120834
:10189300C55BBD041208C555BE041208C55BBF0471
:1018A3001208C577C0041208C585C0041208C55EB6
:1018B300C1041208C5FEC1041208C542C2041208BD
:1018C300C557C2041208C568C3041208C517F70533
:1018D3001208C563C4041208C575D3051208C51DD3
:1018E300D5051208C5DAD5051208C52FD605120885
:1018F300C5ACD6051208C579CF051208C597CF0523
:101903001208C5DBCF051208C501D0051208C5278B
:10191300D0051208C53FD0051208C557D0051208D7
:10192300C56FD0051208C5D2D0051208C514D1055C
:101933001208C5ABF4051208C53FD2051208C54805
:10194300D2051208C551D2051208C55BD20512088B
:10195300C57CD2051208C5E7C2051208C5C7C6056E
:101963001208C5D5C6051208C5DAC6051208C5652D
:10197300E9051208C5CBFF041208C541C7051208C3
:10198300C580FC051208C5AAFC051208C500800322
:101993001208C55780031208C5C380031208C54F38
:1019A30081031208C50582031208C54D820312087C
:1019B300C56682031208C58982031208C5AB820378
:1019C3001208C5E982031208C53883031208C563E8
:1019D30083031208C5C183031208C5688403120870
:1019E300C51085031208C58C85031208C5598603E3
:1019F3001208C5A086031208C5EC86031208C57435
:101A030087031208C5AD87031208C50388031208AC
:101A1300C51F88031208C54E88031208C55A8A03D6
:101A23001208C5888B031208C5B48B031208C5E8D6
:101A33008B031208C5098C031208C5188C031208FE
:101A4300C5238C031208C5D28C031208C5428D032B
:101A53001208C5CD8D031208C5D58D031208C542E2
:101A63008E031208C57E8E031208C5448F03120825
:101A7300C51790031208C56C90031208C50B910398
:101A83001208C56591031208C5AA91031208C5433C
:101A930094031208C58695031208C57098031208AB
:101AA300C55499031208C5389A031208C5499A0305
:101AB3001208C5BB9A031208C5529B031208C5B787
:101AC3009B031208C5A79C031208C5CC9C031208EC
:101AD300C5E89C031208C55B9D031208C5589E0305
:101AE3001208C5659E031208C56E9E031208C550F1
:101AF300A0031208C572A1031208C582A10312082C
:101B0300C5B0A2031208C534A3031208C570A3030A
:101B13001208C54AA5031208C507A9031208C51B65
:101B2300A9031208C525A9031208C52FA903120882
:101B3300C539A9031208C552A9031208C55CA90334
:101B43001208C5C9A9031208C5D4A9031208C5FC04
:101B5300A9031208C507AA031208C56CAA03120831
:101B6300C577AA031208C59BAA031208C5BFAA0317
:101B73001208C531AB031208C57AAB031208C59628
:101B8300AB031208C507AC031208C553AC03120814
:101B9300C59CAC031208C5DAAC031208C55BAD03E0
:101BA3001208C502AE031208C5D1AF031208C53629
:101BB300B0031208C564B1031208C58AB103120841
:101BC300C5D2B2031208C50CB6031208C50AB8037E
:101BD3001208C5D5B9031208C56EBA031208C56F3A
:101BE300BC031208C524BD031208C55DBD0312085A
:101BF300C5C3BD031208C5CDBD031208C5F6BF0397
:101C03001208C535C1031208C58CC1031208C537B4
:101C1300C2031208C5E7C3031208C534C50312087B
:101C2300C554C5031208C5A9C5031208C5AAC6032E
:101C33001208C5D2C6031208C531C7031208C52945
:101C4300C8031208C5A0C8031208C5B3C903120804
:101C5300C521CA031208C520CB031208C57ACD03D8
:101C63001208C5A3CD031208C509CF031208C58BFB
:101C7300D0031208C5E2D0031208C590D10312089D
:101C8300C535D2031208C58ED2031208C54CD3033F
:101C93001208C5DED3031208C53DD4031208C57F5D
:101CA300D4031208C5B0D4031208C507D60312081B
:101CB300C50080021208C53280021208C56B80027B
:101CC3001208C52982021208C5FF82021208C55EE6
:101CD30083021208C57484021208C5C08402120864
:101CE300C54E87021208C5288A021208C56F8B02E7
:101CF3001208C5078C021208C5138C021208C55CB2
:101D03008C021208C59E8D021208C5948E02120819
:101D1300C5BE8E021208C5148F021208C56D8F024C
:101D23001208C5E08F021208C51692021208C59860
:101D330093021208C58394021208C5CD95021208B6
:101D4300C50598021208C5029B021208C5119B0221
:101D53001208C5A59B021208C5509C021208C59320
:101D63009C021208C5DC9C021208C52C9D021208B5
:101D7300C5909D021208C5029E021208C51E9E024E
:101D83001208C54D9E021208C58C9E021208C58713
:101D93009F021208C536A0021208C5B3A202120898
:101DA300C5E5A3021208C5BDA4021208C53FA502DA
:101DB3001208C574A9021208C5A3A9021208C5FE18
:101DC300A9021208C531AA021208C5A9AA0212085B
:101DD300C5DCAA021208C53DAB021208C58DAB02D1
:101DE3001208C55AAC021208C513AD021208C5D7B2
:101DF300AD021208C551B0021208C5B3B1021208F0
:101E0300C504B3021208C528B4021208C52BB402D4
:101E13001208C55AB4021208C552B6021208C511F7
:101E2300B7021208C540B7021208C55EB80212080D
:101E3300C526B9021208C5E4BA021208C516BB02C8
:101E43001208C558BB021208C557BC021208C5CAFE
:101E5300BC021208C5F3BE021208C552BF02120823
:101E6300C5A6BF021208C5D5C1021208C5B8C20271
:101E73001208C574C3021208C588C3021208C59CA0
:101E8300C3021208C5C9C3021208C5F9C302120866
:101E9300C5B4C5021208C5C6C6021208C51BC702CF
:101EA3001208C564C7021208C58BC7021208C553BE
:101EB300C8021208C5F9C8021208C57FCA0212086F
:101EC300C5C6CA021208C538CB021208C58DCC029A
:101ED3001208C536CD021208C56ACD021208C582A2
:101EE300CD021208C525CE021208C5A1D0021208E0
:101EF300C549D2021208C567D2021208C585D202AB
:101F03001208C551D3021208C59FD6021208C5A0F4
:101F130081011208C5D881011208C5D886011208AB
:101F2300C51E87011208C55488011208C5B9880166
:101F33001208C52E8A011208C5388D011208C56121
:101F43008E011208C57498011208C504990112087C
:101F5300C5EE9B011208C5FB9C011208C55E9D01DD
:101F63001208C5A69E011208C514A1011208C5A630
:101F7300A2011208C533A3011208C552A401120815
:101F8300C5DFA4011208C5E9A4011208C511A50102
:101F93001208C5B1A5011208C59CA6011208C5699E
:101FA300A7011208C586A7011208C5AFA701120829
:101FB300C5DCA7011208C523AA011208C5F2AA01AC
:101FC3001208C531AB011208C5B3AB011208C554E1
:101FD300AC011208C586AC011208C5CDAC011208CC
:101FE300C500AD011208C544AD011208C593AD018A
:101FF3001208C598AD011208C5F4AD011208C53821
:10200300AE011208C512AF011208C577AF0112085D
:10201300C5DDAF011208C558B0011208C5C0B30130
:102023001208C5C3B4011208C541B6011208C55749
:10203300B9011208C5F9B9011208C542BC01120859
:10204300C5FDBC011208C53CBD011208C514BF0182
:102053001208C531BF011208C53ABF011208C543B2
:10206300BF011208C54EBF011208C56DBF0112089A
:10207300C511C1011208C56EC1011208C578C1019D
:102083001208C582C1011208C5E1C1011208C52B9E
:10209300C2011208C52CC3011208C583C30112086B
:1020A300C594C4011208C5DDC4011208C597C50152
:1020B3001208C5AEC6011208C583C7011208C5CAF6
:1020C300C8011208C5CEC9011208C5C7CA01120842
:1020D300C5DFCA011208C516CB011208C520CB0102
:1020E3001208C52BCB011208C549CB011208C591B3
:1020F300CB011208C5EFCB011208C516CC0112089B
:10210300C528CC011208C5DDCC011208C516CD01C6
:102113001208C538CE011208C58BCE011208C5714D
:10212300CF011208C598CF011208C508D0011208C3
:10213300C584D0011208C5E0D1011208C507D30137
:102143001208C5C9D3011208C597D4011208C55591
:10215300D5011208C53DD6011208C5E7D6011208FC
:10216300C54FD7011208C504D8011208C560D801AC
:102173001208C5B8D8011208C57ED9011208C5A135
:10218300D9011208C55CDA011208C57EDA0112080A
:10219300C5DFDA011208C50FDD011208C508DE012B
:1021A3001208C5B4DE011208C5D5E0011208C51E28
:1021B300E1011208C569E1011208C5C5E101120870
:1021C300C523E2011208C547E2011208C56BE2010B
:1021D3001208C5A0E2011208C5C8E2011208C50D24
:1021E300E3011208C561E3011208C5BAE30112084D
:1021F300C5B4E4011208C552E6011208C597E60109
:102203001208C5C0E6011208C549E7011208C5BC9A
:10221300E7011208C5CAE7011208C5EEE701120873
:10222300C544E8011208C55FE8011208C51AE901AF
:102233001208C546E9011208C589E9011208C5EC6F
:10224300E9011208C5FAEB011208C526EC011208D0
:10225300C5E1EC011208C5C5ED011208C559EE012F
:102263001208C50080051208C53880051208C55933
:1022730080051208C59B80051208C5FF800512085A
:10228300C50981051208C51981051208C5508105C4
:102293001208C5F984051208C5C186051208C5A52B
:1022A30088051208C54789051208C5D18905120892
:1022B300C58F2F001208C53830001208C51731002A
:1022C3001208C52332001208C54332001208C5653F
:1022D30033001208C51535001208C58235001208EF
:1022E300C55336001208C55937001208C5D1370047
:1022F3001208C50C38001208C56538001208C5A0BD
:1023030038001208C5E938001208C57D39001208E3
:10231300C5133A001208C5E83A001208C5BB3B00D2
:102323001208C5493C001208C56F3C001208C59C41
:102333003C001208C5CD3C001208C59A3D001208A6
:10234300C5AA3D001208C5FD3D001208C50A3E009E
:102353001208C5173E001208C5203E001208C584A6
:102363003E001208C5E23E001208C52D3F001208C8
:10237300C5483F001208C56F3F001208C58C3F00D7
:102383001208C5983F001208C52941001208C5422A
:1023930041001208C5BE41001208C5D14100120810
:1023A300C5E141001208C58542001208C5F143008A
:1023B3001208C50445001208C5A445001208C5AE9D
:1023C30045001208C52D46001208C53E46001208F6
:1023D300C57D46001208C5AB46001208C578470004
:1023E3001208C5CF47001208C50848001208C55E89
:1023F30048001208C57C48001208C5CA48001208E4
:10240300C59549001208C5E349001208C5304A00C2
:102413001208C5B34A001208C5DD4A001208C513E5
:102423004B001208C5224B001208C5814B0012084D
:10243300C5F94B001208C53A4C001208C58A4C0076
:102443001208C5B54C001208C5CF4C001208C5E9E7
:102453004C001208C5BE4D001208C5C84D00120835
:10246300C5034E001208C5134E001208C5644E0082
:102473001208C5784E001208C59A4F001208C5AF5E
:102483004F001208C54250001208C5B6500012088A
:10249300C55B51001208C56651001208C5C9520038
:1024A3001208C5E552001208C53153001208C59F32
:1024B30053001208C5D153001208C5EB530012088C
:1024C300C54B54001208C5EA54001208C53555001F
:1024D3001208C58857001208C52058001208C5976E
:1024E30058001208C5F45A001208C50C5B00120804
:1024F300C50F5B001208C51B5B001208C52F5B00EC
:102503001208C5375B001208C56E5B001208C5626E
:102513005C001208C5EC5C001208C56E5D00120871
:10252300C5EE5D001208C5C55E001208C5E75E0072
:102533001208C5805F001208C5DD5F001208C5E000
:102543005F001208C54F60001208C59B61001208A6
:10255300C5AE62001208C53963001208C54C640099
:102563001208C51365001208C54465001208C56A40
:1025730065001208C57365001208C5A2650012083C
:10258300C55266001208C50267001208C5756700C8
:102593001208C51868001208C58B68001208C5CA5E
:1025A30068001208C51369001208C5B1F6051208C0
:1025B300C52EF6051208C576FC051208C50EFC05E6
:1025C3001208C5F3FB051208C5E3FB051208C5EAAB
:1025D300FF031208C5F07F001208C5CFF9051208E2
:1025E300C531F9051208C520F9051208C511FF0305
:1025F3001208C537FE031208C56DFD031208C5DCBA
:10260300FB031208C5A5FB031208C577FB031208D9
:10261300C52BFB031208C594FA031208C504FA0379
:102623001208C5DEF9031208C593F9031208C55D44
:10263300F9031208C5E0F8031208C593F40512085C
:10264300C57BF8031208C585F4051208C56EF405A9
:102653001208C554F4051208C5E0F3051208C5CBEA
:10266300F3051208C57EEF051208C525EF0512080C
:10267300C5DDEE051208C52AF8031208C552F70393
:102683001208C5C2F6031208C576F6031208C5BEC2
:10269300EE051208C5F1F5031208C5ACF5031208DF
:1026A300C590F5031208C538F4031208C558EE05A2
:1026B3001208C50AF4031208C536D2051208C5D795
:1026C300F3031208C55BF3031208C556FE02120892
:1026D300C5FDFD021208C5C8FD021208C593FD021F
:1026E3001208C55FFD021208C5F2FC021208C5DA22
:1026F300FC021208C5B5FC021208C58EF9021208C5
:10270300C561F7021208C568F5021208C5F4F402A0
:102713001208C5A5F4021208C536EE051208C55FF6
:10272300F4021208C501F4021208C50BC404000028
:102733000080FBE4730000030020019D8100000082
:102743000020019E810000040042013A8000000540
:102753000042016D800000060042014B800000072B
:102763000020019F81000010004203261D0000117C
:102773000020030119000012001003371D0300009D
:1027830000210302190300010020010419060000BF
:102793000010010519050B000021010000050B01C4
:1027A3000021010000050B000123010000050B01BE
:1027B3000123010000050B020123010000050B03A7
:1027C3000123010000050B040121010000050B0595
:1027D3000121010000050B060121010000050B0783
:1027E3000121010000050B080121010000050B096F
:1027F3000121010000050B0A0121010000050B0B5B
:102803000121010000050B0C0121010000050B0D46
:102813000121010000050B0E0121010000050B0F32
:102823000121010000050B100121010000050B111E
:102833000121010000050B120121010000050B130A
:102843000121010000050B140121010000050B15F6
:102853000121010000050B160121010000050B17E2
:102863000121010000050B180121010000050B19CE
:102873000121010000050B1A0121010000050B1BBA
:102883000121010000050B1C0120010000050B1DA7
:10289300012801000087000100911D350004005646
:1028A3001D250002005A1D260002005C1D270002A0
:1028B300005E1D28000100681D29000100691D84B8
:1028C3000004006A1D860001006E1D2A0001006FCE
:1028D3001D2B000100701D2C000100741D2D00082C
:1028E300007E1A2E000100751D2F000100761D3099
:1028F300000100771D31000100781D3200010086C0
:102903001A33000100871A34000100791D360001D3
:1029130000881A380001007A1D39000100731D83F5
:102923000002008F1D63000100941A64000100710E
:102933001D65000100721D6D000100951A710008EC
:1029430000761A660001008E1D430001007F1D44BE
:10295300000200801D45000100821D460002008325
:102963001D470008008C1A48000100851D4B00011B
:1029730000861D04000100921DA1000100951D3772
:10298300000100941D88000100931D3C0001008993
:102993001A3D0001007B1D49000200871D670001ED
:1029A30000961A4D000200891D4E0001008B1D4F39
:1029B3000002008C1D3E0001008B1A510001007CB7
:1029C3001D520001007D1D530001007E1D540001B6
:1029D300008A1A00000000000000013636010100E1
:1029E30001020100010301000104010606050200C2
:1029F30000070100340801000F090401010D010063
:102A0300FF0E08000017020000190100FF1A010061
:102A1300011B0100FE1C0100081D0200001F010034
:102A23000120010001210200002301000F24020004
:102A3300002601000127010008280200FF2A0100E7
:102A4300072B0102402C0100002D0100012E010083
:102A5300012F0100FF30010B1D310800003A010076
:102A6300083B01000F3C0100013D0100FF3E040053
:102A73000042040000460400004A0400004E040023
:102A83000052040000560400005A04000000002114
:102A930001000100210200000123660001012367F8
:102AA30000020123680003012369000401216A0075
:102AB3000501216B000601212C010701212D0108CD
:102AC30001212E010901212F010A012130010B01EE
:102AD3002131010C0121C8000D0121C9000E012182
:102AE300CA000F0121CB00100121CC00110121CD1F
:102AF30000120121CE0013012132011401213301FF
:102B0300150121CF001601213401170121D000182E
:102B13000121D100190121D2001A0121D30001039F
:102B230071030103010301030103010322030203F0
:102B33000103100300030003000300030003000369
:102B430000034203000324030603000300030403FA
:102B530012032503230325032303040304030003B0
:102B6300000300034403000300032303000365037E
:102B73002100350381030003050300030003000361
:102B830000032503230303047104020460041104F6
:102B9300700402040204010402041004610400042A
:102BA30014046304730472046204430400041304EE
:102BB30006040004000404041204000400040004D6
:102BC30000045104640000040004000444040004ED
:102BD3000004000400046504000435048104640057
:102BE3000504000483040004030071003001600045
:102BF30011007000310220035004800010006100B6
:102C030000001400630073007200620043000000C0
:102C13001300060000000000040012000000000082
:102C23000000000004000400370037003C024400A9
:102C33000000000000000000650000003500810076
:102C43000000050000008300000001017101010183
:102C53000101110101013101010101018001100193
:102C630061013B00140063017301720162014301BE
:102C73000001130106013D013500040112010001A9
:102C830000010001000104010401330133013C018F
:102C930044013201360000010001650100013500E5
:102CA3008101000105018201830100010302710218
:102CB300300160021102700201020202020280026C
:102CC300100261023A00410063027302720262025F
:102CD300430200021302380000020002040212023F
:102CE300000200020002000204020402370037005F
:102CF3003C024402000239000002000265020002A5
:102D030035028102000205028202830200023600BC
:102D13000100060000000F0000000000000000009A
:102D23000000000003FFFF00000403FFFF0000FF9B
:102D3300FF0FF4010005C4040320000100000B0091
:102D43000000000000000003010F0000000000006D
:102D53000000000000000000000000000000000070
:102D6300000000000000000000000000FD12391305
:102D73000313371209133F1309134B130F1337129E
:102D830009133F13151337121B133712211337126D
:102D9300271337122D133712331337120000000095
:102DA3000000000000000000000000000000000020
:102DB3000000000000000000000000000000000010
:102DC30000000000000000000A00000002000000F4
:102DD30004000000080000001000000020000000B4
:102DE300400000008000000000010000000200001D
:102DF3000004000000080000001000000020000094
:102E03000040000000005F171300E1161F00E716E3
:102E13001F80ED1601005F170200991603009F162D
:102E23000400A5160500AB160600B7161100D5164B
:102E33001400DB161500C916FFFF0000014B1F0627
:102E4300751F086F1F0B8D1F10631C02511F056335
:102E53001F07571F0C331F0D3F1F64771AFF000016
:102E630007ECFDFDFDECDCDCCCBCACAC9C9C8C7CB1
:102E73007C6C6C5C5C5C4C4C3C3C2C2C1C1C001631
:102E83000F00000B150B020002220F3300000E5A35
:102E93006967426565416C6C69616E6365303901D0
:102EA300030507090B0D0F00020406080A0C0D1495
:102EB3000AE5D5C5B5A5A5958585756500034A4978
:102EC300434E181A25050200393D3F373C3C362C4A
:102ED300442D303017181921301B1D1F30000119E4
:102EE3001618161618230300303016181920231A43
:102EF3001C1E300C0E020B040B0A0708000F020401
:102F03000201010101090200BE040AE8030000FAFC
:102F13000600000000632EE8030E00B22E7F0005BA
:102F23000C1E04040A1000080C28042C00090301D9
:102F33000C090508150800FF031003FFE00412370E
:102F4300BFA2E792AF22E4F0A3F0A3F022A3122FD3
:102F530049A3F0227F0C020647E0F508E4F509F5E2
:102F63000AF50B227401F090059BE0640F227409AB
:102F73001209107F04020647A3A3E024F5C39413A8
:102F8300229005BB125AAF7A147B0022C082C08301
:102F9300901BB07411F0A37423F0A37423F0A374F3
:102FA30023F0901BB474F9F0A37422F0A374F3F02C
:102FB300A37422F0A3742FF0A37423F0A37435F049
:102FC300A37423F0A37429F0A37423F0A374E1F092
:102FD300A37422F0901BC07405F0A37423F0A374B0
:102FE3000BF0A37423F0A374FFF0A37422F0A37473
:102FF3003BF0A37423F0901BD112503C6006125295
:10300300A6121123901BCE1247687408F0A3E4F0B4
:10301300A3F0901C71F0901BD3F07C0BFDF97AD4D4
:103023007B1B1210577C0B7D0079007ADF7B1B1210
:10303300105702477174F71203EB74F71209A8EAE9
:10304300FEEBFF12458F74051231057403F0EE2475
:1030530002FAE43F1230DF242DFCE43FFD8C828D25
:103063008312321D1230EE600812396774FFF0A329
:10307300F0EE242BE43F1C1CFD8C828D83A3E0C067
:10308300E08A828B831245A0D0E01230EE888289D9
:1030930083124D9824031258791212137408120BD9
:1030A300E87403F09005B012074A74021209A0797C
:1030B30003EEFAEFFB1224CD7402120910E9F508AE
:1030C3007007EEFAEFFB1223B3A9087409023977EC
:1030D300F582E43FF5831264E4124D8DFB8A828B03
:1030E300831230FDE8F0A3E9F0EE22125ACD12303C
:1030F300FDE8F0A3E9126049E0221231E88A828BED
:103103008322F0A3E4F012310D22EE240DF582E4C4
:103113003FF5832274F11203EBEAFEEBFF8C088D7B
:1031230009890A1231F28A828B831231E8740F12F1
:103133000BE812320BE824FF18E934FFF98882897F
:1031430083E50A1231FD9005B51231FA9005B412E8
:1031530031FA7411120BE812320BEE2404FCE43F33
:10316300FD880B8A828B83E0F50C8C828D83E025AE
:103173000CC3950B125AC9E8F0A3E91244FCA3A3AC
:10318300A3A3A3A3A3A3E064037008124858F0A366
:10319300E480031234FE1231087409F0750CD475FF
:1031A3000D1B750E00780C1208DE1234F212104B50
:1031B3007403120910750CFF750DFF780C1208E2E9
:1031C300AC08AD097903EEFAEFFB1224CD740212B9
:1031D3000910E9F5087007EEFAEFFB1223B3A9080B
:1031E3007F07020647E024FFF8A3E034FFF922EE4D
:1031F3002402FAE43FFB2212321D12320122F0E8CC
:1032030024FF18E934FFF922E0F50CA312321D1252
:10321300320188828983E50CF022E0888289832247
:10322300C082C083901BF0E0C394084004740780FD
:1032330001E08A828B83F033333354F8F902477108
:1032430074F01203EBEAFEEBFF890C8C0E8D0F7505
:103253000A00A2AFE433F50BC2AF901BEA803F1222
:10326300332B503712333C64037030EE24F9FEEFF6
:1032730034FFFF850882850983A3A3E02405FCA30B
:10328300E03400FDEEFAEFFB121213EE24FF1EEF03
:1032930034FFFF7410250AF50A150C1244C9126491
:1032A300E0E50C6006E508450970B4E50BA2E09281
:1032B300AFA2AFE433F50BC2AF901BEA802C24021C
:1032C300FAE43509FB8A828B83125AB82406F58205
:1032D300E438F5831233498A828B83123331A3A3F3
:1032E300123349050A150C1244C91244DE60221236
:1032F300333C640270F112332BE50840C112362CC3
:10330300A2E550E3850E82850F837401F0E50C700E
:10331300D6E50BA2E092AF8E828F83E50AF0EE240E
:10332300FFFAEF34FFFB8035123637A2E622123361
:103333003522125EADA3A3A32285088285098312D9
:103343005EA71254E122E08E828F83F0EE24FF1EEB
:10335300EF34FFFF2212259974041209107F08022B
:10336300064774EC1203EB74F51209A889138A1249
:103373008B0F851882851983E4F0041209981222B1
:10338300C3E9F890059AE0292434F508FA7B001282
:10339300106F8A0A8B0BAE0AAF0BEE4F7003023429
:1033A300E6EE2402F50AE43FF50BA808EE28F8E45C
:1033B3003FF9850A82850B831230E72404F510E474
:1033C3003FF511851082F583E4F090059AE0FCF84F
:1033D300C3E498F895E0F9850A82850B83E028F524
:1033E30008A3E039F509900598125771750E007816
:1033F3000C1208DE7D00AA08AB0912104B740312ED
:103403000910AC18AD197401120BE8E0F9E50824B2
:10341300FFFAE50934FFFB1222C98A828B83E4F0A9
:10342300EA24FFF508EB34FFF509E50FC454F0F97E
:10343300901C72E0C4333354C0F8900594E0A2E0CA
:10344300E43313134849440F123506E512C454F00C
:103453004513850882850983F0A808850A82850BB0
:1034630083E0FA851082851183E02AC398F0850AE8
:1034730082850B83E8F0A3E509F01234FE123108CC
:10348300E4F0740A120BE8E4F07508DF75091BF524
:103493000A78081208DE1234F212104B7403120970
:1034A30010851882851983E06009EE240E124625E3
:1034B3004408F01224B5E9F9E4F508F5097808128F
:1034C30008E274041209A0EEFAEFFB1224CD740291
:1034D300120910E97006EEFAEFFB800BEEFAEFFB30
:1034E3001210757A007B00740B120910022F577C9F
:1034F3000B7D00EE2418FAE43FFB22124593E4F01F
:10350300A322E085088285098312351022F0125721
:10351300452274F31203EB8A0A8B0BA2AFE433F553
:103523000CC2AF750800750900901BEA802C123796
:10353300535024850A82850B83A3A312690D8E82BF
:103543008F83A3A31252A91224BBE9600A1235790F
:10355300C2E6F08E088F09123748123A0170CFE5A0
:103563000845096006123633D2E6F0E50CA2E09274
:10357300AF7F0502064712357D2212575EE02274A3
:10358300F01203EBEAFEEBFF8C0C8D0D750E00A21F
:10359300AFE433F50FC2AF750800750900901BEA5D
:1035A3008020850A08850B09123633D2E4F0E5083A
:1035B30012362CD2E7F0E50A24FBF582E50B34FF43
:1035C300F583E0F50AA3E0F50BE50A450B6043E557
:1035D3000A1243B4350BF583E0A2E750D9850A827A
:1035E300850B83A3A312074AAC0CAD0DEEFAEFFBD8
:1035F3001224C17402120910E960BBE50845096091
:10360300A1E508240D12363F64017006123648D234
:10361300E4F0E50FA2E092AFE50845096006122346
:10362300AD750E01A90E0233601243DE123642223B
:1036330012363722E508241112363F22F582E4358B
:1036430009F583E022850882850983125EA7E022BB
:1036530074F21203EB74FE1209A8750C00750D00C9
:10366300851882851983E4F0A3F0A2AF33F50AC26B
:10367300AF901BEAE0FEA3E0FF8035EE24FBF5826A
:10368300EF34FF1264DE780C1208E2EEFCEFFD7AF1
:10369300EA7B1B1210A57402120910EEFCEFFDAABF
:1036A30018AB19121093AE08AF09901BF0E014F099
:1036B300EE4F6027123753501DEE240BF8E43FF909
:1036C30088828983E024FFF0A3E034FFF0888289B5
:1036D3008312503C60A51237448099E50AA2E09218
:1036E300AF901BF0E0603190059BE0640F600690A3
:1036F3001C71E070237AC87B1B1225A5908194125C
:1037030007467AC87B1B1225997404120910800896
:1037130074F012498F1223A1AA18AB191210998AB7
:103723000A8B0BAE0AAF0BEE4F60131222D5123584
:1037330079A2E28E828F83A350D674E980D4023AB1
:10374300098E0C8F0DEE24FBF582EF34FFF58322F7
:1037530012357DA2E72274F71203EBEAFEEBFF12A8
:1037630022D512459D122736E964019005B7700AE8
:10377300E02401F8A3E034008004E0F8A3E0F912A8
:103783004BEB124F94901BF0E0702190059BE0648B
:103793000F70197AC87B1B1225A5908194120746D6
:1037A3007AC87B1B1225997404120910A9A8C2AF09
:1037B300901BF0E0041237BFA2E7800DF0E9A2E707
:1037C300E433F8E922E508A2E092AF024A2B74F74A
:1037D3001203EBEAFEEBFF123806F01222D5EEFCE1
:1037E300EFFD7AEA7B1B12109FA9A8C2AF901BF0D2
:1037F300122F3F90059BE0640F7005790812246D2A
:10380300024A2B12357DC2E42274F71203EB74EAE9
:103813001209A8EAFEEBFF900594E0604085188248
:103823008519837401F0120BE8E41238DE120BE8F9
:10383300AA82AB831212138E828F8312364EC0E09C
:10384300740A120BE8D0E0125ADE740B120BE8AACA
:1038530082AB831224E5AA18AB1912195774160206
:10386300397774F71203EBEAFEEBFF1222B7E9F99B
:1038730074DC69601E74DD69601974E46960147432
:10388300F369600F74DE69600A74DF69600574DBD5
:10389300697007EEFAEFFB122473024A2B74F712D6
:1038A30003EB74EB1209A8EAFEEBFF851882851976
:1038B3008374061238DE120BE8AA82AB831212134A
:1038C300125AE3740A120BE8AA82AB831224E5AA04
:1038D30018AB191219577415023977F0EE2413FC3B
:1038E300E43FFD74022274F71203EB74F71209A884
:1038F300EAFEEBFFEE242D12462560651241B6AABF
:1039030018AB191212137408120BE87403F0900524
:10391300B012074A12396712074A9005C3E0F974D7
:10392300041209A0EEFAEFFB1222BD74041209106F
:10393300E9F974DC69602374DD69601E74E469600D
:103943001974F369601474DE69600F74DF69600AC7
:1039530074E869600574DB697007EEFAEFFB122403
:10396300730230CEEE12396C22242BF582E43FF53C
:1039730083227403120910024A2B74F21203EB8A96
:10398300088B09750C00750D00750AE7A2AFE433C7
:10399300F50BC2AF901BEA8003123744123A016061
:1039A3003512375350F3124622640170ECEE242F84
:1039B300F582E43F123BB0E06870DE780C1208E257
:1039C300EEFCEFFD7AEA7B1B1210A57402120910BC
:1039D300901BF0E014F0E50BA2E092AFEE4F601302
:1039E300EEFAEFFB1222D579F0EEFAEFFB12247315
:1039F300750A00A90AAA08AB09122473800DE0FE18
:103A0300A3E0FFEE4F2274021209107F060206475D
:103A130074F41203EB74F71209A8EAFEEBFF8E822B
:103A23008F83A3E064F37003023ABD8E828F83A376
:103A3300E064DF7003023ABD8E828F83A3E064E803
:103A430060788E828F83A3E064DB606E122317E9B4
:103A5300F508705EEE240E1246256056123AC71220
:103A6300235FEA4B604C7408120BE8123AD1120739
:103A73004A7508FF7509FF78081208E28E828F8362
:103A8300A3A3A3A3A3A3A3A3E0F974041209A012FD
:103A930022BD7404120910E9F50874F36508601275
:103AA30074DF6508600C74E86508600674DB6508FC
:103AB300700F8E828F83A3E508F0EEFAEFFB1223DB
:103AC30023022F71EE240FFAE43FFB7909227402DB
:103AD3001262A674FFF0A3123ADE22123AE2221215
:103AE3004DA1A3A32274F51203EB8A088B097E0070
:103AF3008A828B83A3A3A3A3A3A3122F7B40027E5B
:103B0300E88A828B83A3A3A3A3A3A3A3A3A3A3E072
:103B1300C3941040047EE880138A828B83A3A3A3FB
:103B2300A3A3A3A3A3A3A3E0640F600A901C4EE086
:103B3300540870027EE8EA240BF582E43509123B4F
:103B4300B0A3A3A3A3A3A3A3A3E0C398500CEA2405
:103B53000B12363F640F60027EE89005B4E0F47008
:103B630003A3E0F470027EEC7A237B0012111D9014
:103B73001BD11252B9901BD112503C602985088287
:103B8300850983A3A3A982AA8389088A09750A00E0
:103B930078081208DE7C237D001252A612104B74A3
:103BA3000312091080027E1AEEF9026447F583E0DE
:103BB300F88A828B83A3A32274F51203EBEAFEEB4C
:103BC300FF8E828F83A3A3A3A3A3A3A3A3E0900544
:103BD3009B1261899005B612616F90059612618EF2
:103BE300901C72F0F9120DDB901C72E06018EE2449
:103BF30004FAE43FFB7950120DC3EE2406FAE43FC6
:103C0300FB79E1120DC3901C71122F6760047401DC
:103C130080027400901BD31261751208DE7C0B7D49
:103C2300007AD47B1B12104B7403120910EE241874
:103C3300F508E43FF50978081208DE7C0B7D007A6D
:103C4300DF7B1B02643F74F71203EBEAFEEBFF8E8C
:103C5300828F83A3E070061252A612231D8E828FD9
:103C630083742C12498F12247F024A2B74F7120398
:103C7300EBEAFEEBFF901BD112503C600D1252A6F3
:103C8300901BD1E4F0A3F01211238E828F8374086A
:103C930012498F121957024A2B74F61203EB901C28
:103CA30071E06013901BD3E0700D123CBD1222CF64
:103CB300EA4B60031223B3025DE9900596E0FB90A3
:103CC30005B6E0FA90059BE0F92274F41203EB7455
:103CD300E71209A8EAFEEBFF750B018E828F83A31F
:103CE300A3A3A3A3A3A3E0A2E25068EE242BF5822F
:103CF300E43F12690B123D8B1222DBE97055908071
:103D0300F0E064017005750B008048123D931208C2
:103D1300DE7C0B7D00741112099812104B74031290
:103D230009101224B5E9FA740E120990880889095A
:103D330078081208E275083075090078081208E25D
:103D430012396712074A125A7F79011224D3740673
:103D530012091085188285198374101238DE120B2C
:103D6300E8AA82AB83121207123967125AAB740B9B
:103D7300120BE8124F94740D120BE8E50B12480274
:103D83001219577419022F73EE2413FAE43FFB221E
:103D9300EE240812617D22C082C083901C72E06011
:103DA30003122527024771C082C083901C6974B037
:103DB300F0A3741BF0A374B4F0A3741BF0A374C03A
:103DC300F0A3741BF0901DAD7489F0A3742BF090D5
:103DD3001C5374B1F0A37422F0901BF574E7F0A3A5
:103DE3007422F0901BF774EDF0A37422F0901C4E34
:103DF300E044028001E4F0024771C082C083EAFC20
:103E0300EBFD7903024E0DC082C083EAFCEBFD7922
:103E130005024E0DC082C0837908025F7AC082C05A
:103E23008374FE1209A8901BFD749BF0A37423F006
:103E3300901BFF7495F0A37423F0800D7AEA7B1B2B
:103E43001210991247F81224A3901BEA12503C70E7
:103E5300EB901BEC12503C600F7AEC7B1B12109919
:103E63001247F81224A380E9901BEAE4F0A3F09030
:103E73001BF0122F4A7402800274111209100247B8
:103E83007174F61203EBE9FF74CA29F582E4342E48
:103E9300F583E493FEFA7B0012106FEA4B6011EA9C
:103EA3002E124F8A8A828B83A3A3A3A3E4F0802CD0
:103EB3007A027B0012106FEA4B601D74D52FF582D6
:103EC300E4342EF583E4938A828B83F0A3741AF08F
:103ED300901C49E0F912107B7A007B00025DE9E94E
:103EE300FC740629F8EAA2E0501EE875F00A84E59E
:103EF300F0F96014740A28C399F8E9C394054004DF
:103F0300740A28F8740B28F8ECC3941340047A1449
:103F130080027A06EA2879002409F85001097A0A0E
:103F23007B0012029BE8F90208C2C082C083901C86
:103F33004EE05402600A12195DE9600479018002BF
:103F43007900024771C082C083901C4EE054026026
:103F530016901BF0E0700C125039600BE0C812444D
:103F6300D65004790180027900024771C082C08370
:103F73009080EDE0F8901BF2E0C398500512106FAB
:103F830080047A007B00024771C082C0831224A39D
:103F9300790002477174F71203EB74FE1209A885C6
:103FA3001882851983EAF0A3EB124107A3A3A3A305
:103FB300A3E0600A14606024FE60690240889005F3
:103FC3009BE0640F6018122479E9701285188285CA
:103FD30019831252A9901BF91245A0122736900596
:103FE300C3E0C0E0851882851983124D6BD0E012BF
:103FF300410774141262A212690D7AEC7B1B121032
:1040030093A8A8C2AF901BF2E0041252BF7920120A
:10401300246D7402023977851882851983125EAF85
:10402300741580D08518828519831240EAA3A3E012
:104033006053851882851983E02402F8A3E03400D5
:10404300F9888289831266E0E0C0E08518828519C9
:1040530083E0FCA3E0CC2406F582E43CF583D0E0C6
:10406300125AEB888289831252B985188285198383
:104073001243D285188285198360131240EF6005BD
:104083001240F74043AA18AB191224A380841240AC
:10409300EF60F21240F7501C1244E6FA851882854D
:1040A30019831240F1F87400124F85342FF583E41D
:1040B300936A60148518828519831240EF6408702F
:1040C300C41244E6640870BD1244E61412410F247E
:1040D3000AC0E08518828519831245A0D0E01241F9
:1040E3000F04023FF7E0F8A3124DB822E0F8A3E073
:1040F30012411622851882851983125ABC12411760
:10410300C3940A22124121F583888222124121128B
:10411300411622C82406F582E438F583E0221262B0
:10412300A6E0F8A3E022C082C083901C0112503C99
:104133006008125EB012273680027900024771745C
:10414300F71203EBEAFEEBFF12310D7401F0EE24DC
:1041530030F582E43FF5831258191230E724321206
:104163004625C0E0EE2413F582E43FF583D0E0F06A
:10417300EE2433124625C0E0EE2414F582E43FF525
:1041830083D0E0F0EE242CF582E43FF58312074A56
:104193001241B6EE242E124625F91224CD740212D2
:1041A3000910E9F5087007EEFAEFFB1223B3A9082B
:1041B300024A2BEE2423FCE43FFD22C082C083127B
:1041C3002479E96004792080027901024771C08271
:1041D300C083EA1243B4124275D2E0023DF9C082B1
:1041E300C08312426F6401701112427A400C8A82BA
:1041F3008B83A3E0F9122473806FEA2410124272B6
:10420300A2E650128A828B83A3E0F9901BFB12452E
:10421300A0122736805312426F6401700D12427A46
:1042230050088A828B83743080368A828B83A3E022
:10423300641B8A828B83700474228024A3E0700D34
:1042430012426FF874EB124F85342E800B12426FBB
:10425300F874D5124F85342EF583E4938A828B83C9
:10426300F0901C49E0F912107B024771EA240DF526
:1042730082E43BF583E022EA1243DE3BF583E0A2CE
:10428300E32274F71203EBE9FE1250397003024381
:10429300ABEE6011741B6E7013E0C81243AE64057D
:1042A3007003024376125E9FE402437A74E96E70F0
:1042B300621243CA700B121963E960051243E4608A
:1042C3006279EE120D45901BF31243C7901BF36006
:1042D3003B1243E7901BF3700B1243C714F0120F0A
:1042E300070243AB1243D2C2E71244F21243AE6455
:1042F30003700C125AB51243B412411CD2E2F07986
:10430300ED120D451243BA1227368075125EA27460
:10431300E9806474E16E703E121963E960551243DB
:10432300E470509005BDE0C0E0125AB52412F58246
:10433300E438F583D0E0F09005ACE0C0E0901BF3E7
:104343001240E81240E8D0E0F09005ACE004F079C8
:1043530001120EEF8052741C6E7018901BF31252F0
:10436300A9901C031245A0122736901BF3E4F0A377
:10437300F08035125E9FEEF0901BF31252A91223C8
:10438300A1125AB5125A87E0548060109005C3E019
:10439300F9120DFF9005C2E0F9120DF3901BF3E43F
:1043A300F0A3F0791012246D024A2B240D12411947
:1043B300222411F582E422901BF31252AD901BF7D5
:1043C300125EA922E0F8A3E0C8241212411922E0E8
:1043D300F8A3E0C81243DE12411C222410F582E444
:1043E30022901BF3125ABC125A8BE054042274F429
:1043F3001203EB750A00750B00A2AFE433FFC2AFE3
:1044030012503960030244AE12459D122736E94427
:1044130010F8901BEA800985080A85090B1244C924
:104423001244DE70030244AE123633586870E878E3
:104433000A1208E2AC08AD097AEA7B1B1210A574D4
:1044430002120910901BF3E508F0A3E5091244F2E8
:104453001244D6405D901BF1E014F0EFA2E092AF5E
:10446300901BF3E0240EF8A3E03400F988088909CF
:104473008882F5831252A9901BF31244ECF912239C
:1044830065E9901BEEF01244FAE05480901BF36050
:1044930026125AB82413124119F9120DFF125AB5F4
:1044A3002414124119F9120DF38018EFA2E092AF10
:1044B3008011901BF080A11243D2A2E1B3E433F93F
:1044C300120EEF022F76E50824FBF582E50934FF8F
:1044D300F583222411124119A2E7221264E4E508AC
:1044E300450922851882851983123335A3E022F00A
:1044F300901BF3125ABC22A3E4F08508828509833A
:104503002274F71203EBEAFEEBFF12249DEE241054
:10451300124625A2E3400C124622640170059080E6
:10452300EB80039080ECE0F9EEFCEFFD7AEA7B1B75
:104533001210ABE96046EEFAEFFB901BFD1245A0AB
:10454300122736EE240E12462554047020A8A8C262
:10455300AF901BF1E00412529FFAE8A2E792AF1268
:10456300458FA3E0540170211223AD801CEEFAEFB6
:10457300FB901BF51245A0122736800D8E828F8388
:10458300A374F112498F1223A1024A2B12459322DD
:10459300EE240EF582E43FF58322901BFF125EA901
:1045A30022C082C0831223AD02477174F71203EB5A
:1045B300EAFEEBFF7900901C4EE05402700CEE24EF
:1045C300301246255404600279E8901C4EE0546092
:1045D300700CEE24301246255402600279E88E8274
:1045E3008F83A3A3A3A3E0F89080F1E0C3985002C4
:1045F30079E8EE242E124625700CEE242B12462564
:10460300700479F5800BE9700512238FE9F9E960ED
:1046130007EEFAEFFB122473024A2B34FFF509EE7F
:10462300240DF582E43FF583E022C082C0838A82B1
:104633008B83740DF0121957024771C082C0838AAD
:10464300828B83E4F0A3F0EA243012427254049084
:1046530080EB7012E0F8901BF1E0C398401279F1FF
:10466300122473024771E0F8901BF0E0C39850EEF8
:10467300901C49E0F912107B80E974F61203EBE910
:10468300FE244CFAE43400FB12106FEA4B6012EE86
:104693008A828B83A3A3A3A3F0EA244C124F8A80BC
:1046A300047A007B00025DE9C082C083901C05741C
:1046B300FBF0A37423F0A3742BF0A37424F0A3746E
:1046C30001F0A37424F0A37407F0A37424F0A3747B
:1046D30025F0A37424F0A37419F0A37424F0A37435
:1046E30013F0A37424F0A37431F0A37424F0A3741F
:1046F30037F0A37424F0A3743DF0A37424F0A374DF
:1047030049F0A37424F0A3740DF0A37424F0A374EC
:10471300F5F0A37423F0A374EFF0A37423F0901CBB
:1047230021741FF0A37424F0A37443F0A37424F042
:10473300A3745DF0A37425F0A3744FF0A37424F065
:10474300A37455F0A37424F0901C45E4F0901C4826
:10475300F0901C311247687402F0901C3A124768BB
:104763007401023DF9746DF0A37424F0A322D08385
:10477300D0820208C274F51203EB74F11209A88502
:1047830018828519837402F07401120BE8E9F06052
:10479300047AFF7BFF7402120BE81252B975083DCD
:1047A30075091C750A0078081208DE7C0B7D0074FD
:1047B30007120BE8AA82AB8312104B740312091081
:1047C300AA18AB19121957740F02644474F7120331
:1047D300EB74FD1209A8851882851983740AF07495
:1047E30001120BE8E9F07402120BE8EA1248021214
:1047F3001957023975851882851983EAF0A3EBF0FE
:10480300AA18AB192274F61203EB74F71209A8EA7B
:10481300FEEBFF1248581231057402124980AA18A0
:10482300AB19121207EE242E1230D32430125886FD
:104833001208E274021209A079831A1AEFFB1224F8
:10484300CD7402120910E9F5087007EEFAEFFB12B6
:1048530023B3025DE212459374012274F01203EB59
:1048630012632D120B797808790C1202FC78081266
:1048730008DA7A347B1C02335874F41203EB74C6DF
:104883001209A890059BE0640F60108518828519B2
:1048930083742E12480212247F80277A2B7B1C12EA
:1048A30025A5122F841202A388088909E4F50AF5C5
:1048B3000B78081208DA7A2B7B1C122599740412E0
:1048C3000910743A022F7374F51203EBEAFEEBFF3F
:1048D3008E828F83A3E0F86003024969EE242D12D0
:1048E300462564026007E06403600278E8EE24234F
:1048F300F582E43FF583122F7D400478E8806AE86F
:104903007064EE2423FAE43FFB79E1120DC3EE2435
:104913002EFAE43FFB7950120DC3EE242D124625E7
:104923006402700E125A75125AAB9005AA124F9474
:1049330080129005AA74FEF0A3041249807AA17B29
:1049430005121213EE2418123D961208DE7C0B7D1D
:10495300007A3D7B1C12104B7403120910EEFAEF20
:10496300FB1223E9E9F8E86011E88E828F83A31232
:104973005CD7741712498F12247F026447F0EE2428
:1049830025FCE43FFD228E828F837429F0EEFAEF3B
:10499300FB2274F61203EB74F71209A8901C48E08B
:1049A300703B7401F0F9120EB9AA18AB191224AFB7
:1049B30075083D75091C78081208E2750801750928
:1049C3000078081208E29005B012074A740612092B
:1049D300A07A0379051224D37406120910025DE448
:1049E30074F71203EBEAFEEBFF7901120EBF8E821E
:1049F3008F83E064207004A374EBF0901C48E0A262
:104A0300E25003C2E2F0E0A2E15008124C2D12235F
:104A1300E3800C8E828F83742A12498F12247F8045
:104A230007EEFAEFFB12251B7F0102064774F4120F
:104A330003EB74FE1209A8EAFEEBFF7901120EBF25
:104A43007A2B7B1C1225A57A347B1C1225A5124DCB
:104A530077851882851983124DABE0F50B700FAA89
:104A630018AB197953120DC31264D4120DC3123D3E
:104A7300931208DE7C0B7D007A3D7B1C12104B7475
:104A8300031209108518828519831252A9A90B12E2
:104A930023DD901C48E0A2E1500C7A008E828F83C4
:104AA300A3E0F91223E3901C48E4F07402022F738D
:104AB30074F71203EBEAFEEBFF8E828F83A374EB92
:104AC300F0901C48E0A2E150077A0079EB1223E34F
:104AD300EEFAEFFB122419024A2B74F71203EBEAE6
:104AE300FEEBFF7901120EBF7A2B7B1C1225A57AF0
:104AF300347B1C1225A5901C45E4F0901C48F07AE9
:104B0300FF7BFF8E828F83A3E0F91223DD024A2B02
:104B130074F71203EBEAFEEBFF122413024A247428
:104B2300F71203EBEAFEEBFF7901120EBF8E828FC1
:104B330083A3A3A3A3E060047400800274EB124B6D
:104B4300745003C2E2F0E0A2E15008124C76122343
:104B5300E38014A2E050108E828F83742AF0A37432
:104B6300EB12498F12247FEEFAEFFB1223C5024AA0
:104B73002B8E828F83A3F0901C48E0A2E22274F66E
:104B83001203EBEAFEEBFF901C48E0D2E1F079015F
:104B9300120EB98E828F83A3E0703C1224B5E9FA1A
:104BA300EE240DF508E43FF50978081208E27508CC
:104BB3000175090078081208E2124BEB12074AEE5E
:104BC3002402FCE43FFD79051224D3740612091074
:104BD300E98E828F83A3F08E828F83A3E060067AAF
:104BE30000F91223E3025DE9124BEF22EE240BF5E9
:104BF30082E43FF5832274F71203EBEAFEEBFF79BD
:104C030001120EBF8E828F83E064207004A374EBC5
:104C1300F0901C48E0A2E25003C2E2F0E0A2E150AF
:104C230006124C2D1223E3024A2BC2E1F07A008EC6
:104C3300828F83A3E0F92274F71203EBEAFEEBFF02
:104C43007901120EBF7A2B7B1C1225A58E828F83CE
:104C5300A3A3A3A3E060047400800274EB124B745B
:104C63005003C2E2F0E0A2E15006124C761223E3B5
:104C7300024B6AC2E1123ADEA3E0A2E4E433FA8E05
:104C8300828F83A3E0F92274F71203EBEAFEEBFFB2
:104C93007901120EBF8E828F83A374EB124B79506E
:104CA30003C2E2F0E0A2E15006124C2D1223E3020C
:104CB3004A2B74F71203EBEAFEEBFF7A2B7B1C12F1
:104CC30025A5EEFAEFFB12243D024A2474F71203E2
:104CD300EBEAFEEBFF7A2B7B1C1225A5EEFAEFFB2A
:104CE30012243D024A2B74F71203EB74EF1209A846
:104CF300EAFEEBFF125A7F7AA17B05121201E960EB
:104D0300628518828519837409F07401120BE874A3
:104D1300EFF0124D77F87402120BE8E8124DABA3D3
:104D2300A3E0C0E07404120BE8D0E0124D986408CD
:104D330070158E828F83A3A3124D6BE0C0E07405C0
:104D4300120BE8D0E080067405120BE8E4125ADE79
:104D53007406120BE8AA82AB831224E5AA18AB19D6
:104D63001219577411023977125ABC2407F582E4D9
:104D730038F58322124D8DFB8A828B83125AAF88BA
:104D8300828983E0FCA3E0F9EC22EE2402F8E43FFD
:104D9300F9E8FAE922124D9C22124DA1E022F08E8D
:104DA300828F83A3A3A3A322F0A3E9125ACD124DAA
:104DB300B522E0F8A3125EB0A3A322C082C083127F
:104DC3002527024771C082C083901C657405F0A338
:104DD300741CF0A37421F0A3741CF0901DA7744DF0
:104DE300F0A3742CF0A374AFF0A3742CF0901C51B7
:104DF30074D7F0A37423F0901C4EE04401023DF9F4
:104E0300C082C083EAFCEBFD790212248B02477156
:104E130074F61203EB74FE1209A8901C4A12503C5C
:104E230060077A4A7B1C1224A3901C50E4F090186C
:104E3300B912503C60268007AA18AB191224A3901C
:104E43001C49E0F91210878A088B09A808A909856B
:104E53001882851983124F94E84970DC7402025D4D
:104E6300E674F71203EBE9FA7B00901C49E0F912B0
:104E730010B1024A2B74F71203EB74F01209A8EA7B
:104E8300FCEBFDE9FE8C828D83E0F874F6124F850E
:104E9300342EF583E493C0E07401120BE8D0E0F004
:104EA300640B700DEE8C828D83A3F0122509024FE3
:104EB30078E07003024F78640C6003024F69741A40
:104EC3006E700B7404120BE8E4F0A3024F687404D1
:104ED300120BE8ECF0A3EDF0EC242F124F7DC0E0B1
:104EE3007403120BE8D0E0126040120BA174061297
:104EF3000BE8120B958C828D83125AA2740A120B43
:104F0300E8124F94EC240E124F7D5410600985185B
:104F130082851983E48013EC2412124F7DF89005E7
:104F2300BDE0C398851882851983F0E0C0E0740C56
:104F3300120BE8D0E0F0EC2415124F7DC0E0740DA5
:104F4300120BE8D0E0F0EC2416124F7DC0E0740E93
:104F5300120BE8D0E0F0EC2417124F7DC0E0740F81
:104F6300120BE8D0E0F07402120BE8EEF0740112B9
:104F730009981219577410023977F582E43DF583C5
:104F8300E02228F582E422F8E43BF98A828B83A3AA
:104F9300A3E8F0A3E9F022C082C083901C50E06430
:104FA30003700479018002790002477174F71203D8
:104FB300EB901C50E012502612690B8A828B83E01F
:104FC300C2E7F025E0F8EC124F853DF583A3E493A7
:104FD300FE125026F58312503C6005EE901C50F0F3
:104FE3008A828B83E0125032EC28F582ED39F58307
:104FF300E493FCC4540F25E0F8745F124F85341C0E
:10500300F58312503C70051224F78014EC540F25DD
:10501300E0FCE82CF582E439F5831245A01227362B
:10502300024A2B12503274A528F582741D392225A9
:10503300E0F8E433F922901BF3125AAFE8492274E3
:10504300F11203EB74FE1209A8890AEAFEEBFF12C0
:10505300513EFA7B0012106F8A088B09EA450960FA
:10506300388A828B83E50AF0A3E4F08E0C8F0DF56A
:105073000E780C1208DEA80A12514BEA2402FAE455
:105083003509FB12104B7403120910AA08AB0990DF
:105093001C49E0F912107B8012851882851983E57B
:1050A3000AF0791AAA18AB191224737402120910A0
:1050B3000231E374F21203EB74FE1209A8890B8A1E
:1050C300088B0912513EF50AFA7B0012106F8A0C05
:1050D3008B0DAE0CAF0DEE4F604A8E828F83E50BC6
:1050E300F0A3E4F0A80AEE28F8E43FF98E828F8358
:1050F300124F928E828F83A3A3A3A3E4F0F50A78C1
:10510300081208DEA80B12514B1234F612104B741E
:1051130003120910EEFAEFFB901C49E0F912107B21
:1051230079008014851882851983E50BF0791AAA12
:1051330018AB19122473791A023A0974BF29F5823C
:10514300E4342EF583E4932274E028F582E4342ECC
:10515300F583E493FC7D0022C082C083E9901C495F
:10516300023DF974F61203EB74FE1209A8EAFEEB92
:10517300FFEE542070378040A8A8C2AF901BF2E026
:105183001412529FF508E8A2E792AF8A828B83122A
:105193005296901C4C1252B912247F85188285199D
:1051A30083E0641560077A4C7B1C1224A37AEC7BA2
:1051B3001B121099EA4B70C0EF54807012801C9040
:1051C3001C4C1252B912247F7A4C7B1C1224A390DC
:1051D3001C49E0F9121087EA4B70E4EE5410600E9C
:1051E300851882851983742D12480212247FEEA23A
:1051F300E0500E8518828519837424124802122404
:105203007FEE5402600E8518828519837425124837
:105213000212247FEE5404600E851882851983746C
:105223002612480212247FEE5408600E85188285E8
:105233001983742812480212247FEE5440601074BC
:1052430001120BE81262A1742C12480212247FEEA1
:10525300548060107401120BE81262A1742F12487B
:105263000212247F901C4A12503C6020A8A8C2AFAF
:10527300901C4A1252A9901C4AE4F0A31252BF1286
:1052830052B812247F7A4C7B1C1224A37A007B0031
:10529300024E5FE0851882851983F022F0E8A2E7C9
:1052A300E43322901BD11252AD22E0FAA3E0FB2299
:1052B300A3A3A3A3A3A3EAF0A3EBF02212529FFE9E
:1052C300E8A2E792AF22C082C083901C4C125AAB73
:1052D300EA687002EB697007901C4CE4F0A3F002DB
:1052E300477174F71203EBEAFEEBFFEE4F70031204
:1052F30025D5A2AFE433F508C2AF8E828F83125057
:105303003C6028E824FBFAE934FFFB901C4C12694B
:105313000DE86C7002E96D7007901C4CE4F0A3F08B
:105323008E828F83E4F0A3F01211230237C8C08268
:10533300C083901C7374EBF0A37424F0A374FDF08A
:10534300A37424F0A37403F0A37425F0A374BFF033
:10535300A37423F0A37409F0A37425F0A374B9F024
:10536300A37423F0A374C5F0A37423F0901C817479
:1053730039F0A37425F0A3740FF0A37425F0A3747C
:1053830015F0A37425F0A37421F0A37425F0A3747E
:105393001BF0A37425F0901C72023DF8C082C083F9
:1053A3009005AAE064FE7003A3E0F470097CA17D7C
:1053B3000512120780158A828B83A3A3A3A3A3A339
:1053C300A3A37402F0125521124F94024771C082B5
:1053D300C0839005B4C3E094FEA3E094FF40047936
:1053E3000380027902024771C082C08312552C8C5C
:1053F300828D831254E1687039740268701C8A824A
:105403008B8312543AE06870298A828B83A31254E7
:105413003AA3E068701C7901801A7403687013EC76
:105423002405FC50010DEA2405FA50010B12120D5C
:1054330080027900024771A3A3A3A3A3E0F88C829F
:105443008D83A3A3A3A3A32274F61203EB7E00749C
:105453000A120BE8E01254D5FF8A828B83A3A3A31D
:10546300A3A3A3A3A3E06F706474026F704E8A8238
:105473008B83C082C08388828983A3A3A3A3A3E071
:10548300F50888828983A3A3A3A3A3A3E0FBAA08A7
:10549300D083D082E06A7003A3E06B703088828986
:1054A30083A3A3A3E0FA88828983A3A3A3A3E0F938
:1054B300EA6C7002E96D70157E01801174036F70E0
:1054C3000CE82405FCE439FD12120DE9FEEEF902A5
:1054D3005DE9F8A3E0F9888289831254E122A3E00D
:1054E3001313543F540322C082C0838A828B83A345
:1054F300A3A3A3A3A3A3A3E064027014125521E002
:10550300687003A3E06970047901800F7900800B50
:10551300EAFCEBFD7AA17B051212010247719005AB
:10552300AA125AAF8A828B83228A828B831254E116
:10553300F82274EC1203EBEAFEEBFF8C128D137569
:105543000A008C828D83A3A3A3A3A3A3A3A3E0F543
:1055530010E9A2E75008750CFF750DFF8006900552
:10556300B0125771E9C2E7F511EE240E1246255425
:1055730020600712575274088004125752E41257DE
:10558300795404600712575A7480800512575A746D
:10559300101257795410600612572AE4800B9005B5
:1055A300BDE0C0E012572AD0E0125779A2E05003C1
:1055B300750A20540860067410450AF50A8E828F16
:1055C30083A3A3E024FFF508A3E012461EC39402BD
:1055D300E0400B640B6005E0141235067403450AC2
:1055E300F50A750B009005D0E0640170118E828F6F
:1055F30083A3A3A3A3E0C394674003750B10851192
:105603000E750F00740E780E120A75E50F450BF533
:105613000B7414120BE8E0F50EA3E0F50F740265AA
:1056230011700E9005B51235059005B412576880B8
:10563300137403651170121257347CC47D05AA08D4
:10564300FB1212131257418004E5116028E5106024
:1056530014E50E650C7004E50F650D700874404584
:105663000AF50A8010850882850983E50D12577FA4
:10567300E50C12350C85100C750D00740A780C12AC
:105683000A75E50D450BF50B74026510701585124F
:1056930082851383A31235058512828513831257DE
:1056A300688013740365107012125734AC12AD1373
:1056B300AA08FB1212131257418004E510601085EB
:1056C3000882850983E50F12577FE50E12350CA872
:1056D30008A909E824FFF508E912461E700590059C
:1056E300A080039005ACE0FA04F0EA888289831273
:1056F30044FCE50B12577FE50AF0EE2404F8E43F7F
:10570300F91231F2AC088A828B83E0F50A88828928
:1057130083E0250AC39C125AC9ECF0A3E509125C85
:1057230045E4F0F9022F57EE2412F582E43FF583A6
:1057330022E50824F9F508E50934FFF50922125793
:105743004522E50824FFF508E50934FFF50922EEB3
:105753001243DE3FF5832212575E22EE2411F582B7
:10576300E43FF58322E0850882850983F022E0F592
:105773000CA3E0F50D22F0124593E02212351085BB
:105783000882F5832274EE1203EB890A8A0B8C10CC
:105793008D11750C1A7416120BE81264E0AA08FB3B
:1057A30012235F8A0E8B0FAE0EAF0FEE4F60607445
:1057B30014120BE8125819E8F0A3E9123108E50AAC
:1057C300F085080C85090D750E00780C1208DE12A1
:1057D30034F212104B74031209107412120BE812F4
:1057E300074AAC10AD11A90BEEFAEFFB1224CD74EE
:1057F30002120910E9F50C7016E50A24F960031486
:105803007006123579D2E5F0EEFAEFFB1223B3A955
:105813000C7F0A020647125EBE1245942274F612EA
:1058230003EB74F71209A8EAFEEBFF7801EE242FCD
:105833001246256002780512458FE812310574047B
:10584300125879121207EE242C1230D3242E125838
:10585300861208E274021209A079031A1AEFFB12E6
:1058630024CD7402120910E9F5087007EEFAEFFB74
:105873001223B3025DE2F0EE2423FCE43FFDAA18F9
:10588300AB1922F582E43FF58312321D124D9C04BD
:10589300F078082274F21203EB8A088B09ECFEED10
:1058A300FF8A828B837405F0EE24321246258A82A6
:1058B3008B83A3A3F0EA2403F50AE43509F50B85EA
:1058C3000A82F583125771125A75120BA1E50C1255
:1058D30043B4350DF583120B95125A7FAA0CAB0D09
:1058E300121207850A82850B83125EB6FAA3E0FBC8
:1058F30088828983A3A3A31252B3EE242F124625D1
:10590300C0E0125A94D0E0125AD32415F582E43839
:10591300F583E4125AD3125A87E4125ADE850A82B7
:10592300850B83E02416FAA3E03400FB1224E58EF2
:10593300828F83A3A3A3A3A3A3A3E0C0E0850A82CA
:10594300850B83125AB8240DF582E438F583D0E031
:10595300125AC2FAA3E0FB850A82850B83125AAB63
:10596300E8240BFCE439FD8A828B83E08C828D83EF
:10597300F0A3E4125AEBE0F50B8C828D83A3E04590
:105983000B125AC9A3E0FCA30A0AAB83A2E7E433D0
:10599300C0E0E8240FF582E439F583D0E0F0740722
:1059A3005C600478018002780075F00374075CA4DE
:1059B30028F8EA28FAE43BFBE5082405F8E435096E
:1059C300F98A828B8312321D125AEB85088285096C
:1059D300831252B388828983E0F50A540725E0FCD9
:1059E300E50AC4540F5407F50A750B007403780ACB
:1059F300120A75EC250AF8EA28F8E43BF9850882CF
:105A0300850983A3A3A3A3A3A3A3A3A3E8F0A3E963
:105A1300124D98FA8E828F83A3A3E02AFAA3E0346F
:105A230000FBC3EA98EB9940308E828F83A3A3E0F7
:105A3300F8850882850983A3A3A3A3A3A3A3A3A390
:105A4300E0FA8E828F83A3A3A3A3E0C39A288508D9
:105A530082850983A3A3A38010850882850983A374
:105A6300A3A3A3A3A3A31244FAA3A3A3A3A3F002F0
:105A73003A0EEE2425F582E43FF58322EE2413FC4F
:105A8300E43FFD22125A8B22240EF582E438F5837B
:105A930022125A9822E82410F582E439F58322A3CE
:105AA300A3A3A3A3A3A3A3A3125AAF22E0F8A3E043
:105AB300F922901BF3125ABC22E0F8A3E0C8221289
:105AC3005CD7A3A3E022125ACD22F08A828B8322D1
:105AD300F0850A82850B83125ABC22F0125AE32204
:105AE300EE2408FCE43FFD22125ACDA3AA82AB8325
:105AF3002274F51203EB8C088D09750A00780812DD
:105B030008DE7C0B7D0002643F0208C2C082C083B2
:105B13007918122473024771C082C0838A828B83EF
:105B2300E0C3940B50031224F1024771C082C08377
